:020000040000FA
:060000000A128A110C280F
:10000800FE00030EF1000A08F2000A128A11F8280D
:100018000A128A110F28F701F801F90183010A125F
:100028008A11162883160313860187018312031386
:10003800860187018030F3002530F4000A128A1106
:10004800A2200A128A11F301F401F50120300A12E4
:100058008A11E2200A128A1100300A128A11282114
:100068000A128A110A128A1118210A128A11831295
:100078000313A0002008F8000D3083120313A10019
:10008800FB30A000A00B4628A10B462801300A121D
:100098008A1128210A128A110A128A1118210A12B1
:1000A8008A1183120313A0002008F7000D30831271
:1000B8000313A100FB30A000A00B6028A10B60284F
:1000C800FF30F3000030F4000A128A110D210A12E1
:1000D8008A11780883120313A000A1012008F300F5
:1000E8002108F4000A128A110D210A128A1100301F
:1000F800F300F4000A128A110D210A128A117708F6
:1001080083120313A000A1012008F3002108F400C2
:100118000A128A110D210A128A110130F3000030E7
:10012800F4000A128A110D210A128A117908831221
:100138000313860030280A128A110C288B170B1714
:1001480080308316031387008C1626309800903071
:100158008312031398008316031787158316031356
:100168009A0180307306253003197406031DBD28D3
:10017800BE28C12867309900E128B13073062830BD
:1001880003197406031DC928CA28CD285F309900B1
:10019800E1284B3074067304031DD328D428D728CC
:1001A80033309900E128E13074067304031DDD281B
:1001B800DE28E12810309900E1280800F6008316AF
:1001C80003138712761DE928EA28EE28750894009B
:1001D8008715F2287308750494008711760874044B
:1001E80083120313940008008B130B138312031359
:1001F8008C1EFF28002904291A08F0007008F9004D
:100208008B170B1772088A00710E8300FE0E7E0E84
:10021800090083160313981C122913290D29730842
:1002280083120313990008000A128A1121210A1265
:100238008A11831203131308080083160313141C6E
:100248002629272921290800F3007308831203139C
:040258009300080007
:04400E00D4E0FFFFFC
:00000001FF
