:020000040000FA
:060000000A128A110C280F
:10000800FE00030EF1000A08F2000A128A11ED2818
:100018000A128A110F28F701F801F90183010A125F
:100028008A1116288316031788018901831603137A
:1000380007118601880183120313860188010715B9
:10004800F301F401F50120300A128A11D7200A12AF
:100058008A118030F3002530F4000A128A119720A3
:100068000A128A1101300A128A111D210A128A11F4
:100078000A128A110D210A128A1183120313A00091
:100088002008F9000D3083120313A100FB30A000F3
:10009800A00B4C28A10B4C2802300A128A111D21F2
:1000A8000A128A110A128A110D210A128A11831260
:1000B8000313A0002008F8000D3083120313A100D9
:1000C800FB30A000A00B6628A10B662879088312D4
:1000D8000313A000A1012008F3002108F4000A126C
:1000E8008A1102210A128A11780883120313A000C8
:1000F800A1012008F3002108F4000A128A11022144
:100108000A128A11FF30F3000030F4000A128A1133
:1001180002210A128A1177088312031386003628EF
:100128000A128A110C288B170B17831603138717CB
:1001380007138C162630980090308312031398000A
:10014800831603178715831603139A0180307306E5
:10015800253003197406031DB228B328B628673062
:100168009900D628B1307306283003197406031D88
:10017800BE28BF28C2285F309900D6284B307406A5
:100188007304031DC828C928CC2833309900D62801
:10019800E13074067304031DD228D328D628103002
:1001A8009900D6280800F600831603138712761DD7
:1001B800DE28DF28E328750894008715E7287308E8
:1001C800750494008711760874048312031394004D
:1001D80008008B130B13831203138C1EF428F528C5
:1001E800F9281A08F0007008F7008B170B17720827
:1001F8008A00710E8300FE0E7E0E0900831603131B
:10020800981C0729082902297308831203139900E7
:1002180008000A128A1116210A128A11831203137E
:100228001308080083160313141C1B291C291629FC
:0E0238000800F30073088312031393000800FC
:04400E00D4E0FFFFFC
:00000001FF
