:020000040000FA
:060000000A128A110C280F
:10000800FE00030EF1000A08F2000A128A116C2899
:100018000A128A110F28F50183010A128A1157283A
:1000280080308316031387008C1226309800903096
:1000380083120313980083160317871580307306FD
:10004800253003197406031D2A282B283028673009
:100058008316031399005628B13073062830031904
:100068007406031D382839283E285F308316031389
:10007800990056284B3074067304031D44284528FC
:100088004A2833308316031399005628E130740642
:100098007304031D50285128562810308316031363
:1000A80099005628080083160313860187018312D6
:1000B8000313860187018030F3002530F4000A120B
:1000C8008A1114200A128A1168280A128A110C2827
:1000D8008B130B13831203138C1E73287428782830
:1000E8001A08F0007008F5008B170B1772088A00C1
:0A00F800710E8300FE0E7E0E09005B
:04400E00D4E0FFFFFC
:00000001FF
