:020000040000FA
:060000000A128A110C280F
:10000800FE00030EF1000A08F2000A128A119A286B
:100018000A128A110F28F50183010A128A1114287D
:100028008316031386018701831203138601870150
:100038008030F3002530F4000A128A115A200A127F
:100048008A11FF30F3000030F4000A128A11AF2041
:100058000A128A110530F3000030F4000A128A11DE
:10006800AF200A128A110430F3000030F4000A129B
:100078008A11AF200A128A110330F3000030F4000D
:100088000A128A11AF200A128A110230F3000030D6
:10009800F4000A128A11AF200A128A117508831215
:1000A8000313860025280A128A110C288B170B17B0
:1000B80080308316031387008C1626309800903002
:1000C80083120313980083160317871583160313E7
:1000D8009A0180307306253003197406031D7528AC
:1000E80076287928673099009928B1307306283026
:1000F80003197406031D8128822885285F3099001A
:1001080099284B3074067304031D8B288C288F287C
:10011800333099009928E13074067304031D95283B
:100128009628992810309900992808008B130B13EA
:10013800831203138C1EA128A228A6281A08F000EF
:100148007008F5008B170B1772088A00710E830070
:10015800FE0E7E0E090083160313981CB428B528DA
:0C016800AF2873088312031399000800ED
:04400E00D4E0FFFFFC
:00000001FF
