:020000040000FA
:060000000A128A110C280F
:10000800FE00030EF1000A08F2000A128A11F9280C
:100018000A128A110F28F701F801F90183010A125F
:100028008A1116288316031386011030870083125D
:100038000313860187018030F3002530F4000A128B
:100048008A11A3200A128A11F301F401F501203064
:100058000A128A11E3200A128A1100300A128A1140
:1000680029210A128A110A128A1119210A128A11DF
:1000780083120313A0002008F8000D308312031325
:10008800A100FB30A000A00B4728A10B4728013096
:100098000A128A1129210A128A110A128A111921AF
:1000A8000A128A1183120313A0002008F7000D30EA
:1000B80083120313A100FB30A000A00B6128A10B41
:1000C8006128FF30F3000030F4000A128A110E2173
:1000D8000A128A11780883120313A000A1012008CC
:1000E800F3002108F4000A128A110E210A128A115B
:1000F8000030F300F4000A128A110E210A128A1144
:10010800770883120313A000A1012008F300210837
:10011800F4000A128A110E210A128A110130F30022
:100128000030F4000A128A110E210A128A11790885
:1001380083120313860031280A128A110C288B17A0
:100148000B1780308316031387008C16263098000F
:1001580090308312031398008316031787158316AC
:1001680003139A0180307306253003197406031DA2
:10017800BE28BF28C22867309900E228B13073062C
:10018800283003197406031DCA28CB28CE285F30EF
:100198009900E2284B3074067304031DD428D5282F
:1001A800D82833309900E228E13074067304031D1F
:1001B800DE28DF28E22810309900E2280800F6003F
:1001C800831603138712761DEA28EB28EF28750893
:1001D80094008715F328730875049400871176082E
:1001E800740483120313940008008B130B138312F7
:1001F80003138C1E0029012905291A08F00070082C
:10020800F9008B170B1772088A00710E8300FE0E17
:100218007E0E090083160313981C132914290E292E
:10022800730883120313990008000A128A11222105
:100238000A128A1183120313130808008316031382
:10024800141C2729282922290800F300730883127F
:06025800031393000800EF
:04400E00D4E0FFFFFC
:00000001FF
