:020000040000FA
:060000000A128A110C280F
:10000800FE00030EF2000A08F3000A128A110329FF
:100018000A128A110F28F601F701F801F901830184
:100028000A128A11B72883120313A0008B170B1723
:10003800831603130C17831203130C139F131F1734
:100048001F1476289F121F129F111F11B0289F128C
:100058001F129F111F15B0289F121F129F151F11E5
:10006800B0289F121F129F151F15B0289F121F1628
:100078009F111F11B0289F121F169F111F15B0281E
:100088009F121F169F151F11B0289F121F169F152C
:100098001F15B0289F161F129F111F11B0289F16F9
:1000A8001F129F111F15B0289F161F129F151F1191
:1000B800B0289F161F129F151F15B0289F161F16D0
:1000C8009F111F11B0289F161F169F111F15B028CA
:1000D8009F161F169F151F11B0289F161F169F15D4
:1000E8001F15B0282008F400F5017508003A031917
:1000F8007E28B0287408003A03192628013A031903
:100108002B28033A03193028013A03193528073AEE
:1001180003193A28013A03193F28033A03194428D6
:10012800013A031949280F3A03194E28013A0319CD
:100138005328033A03195828013A03195D28073A46
:1001480003196228013A03196728033A03196C282E
:10015800013A03197128B028831603139F018312EB
:1001680003139F14080003308316031788008901BE
:100178002330831603138500860188018312031335
:100188008501860188018B170B178C1183160313C1
:100198008C15851683120313A001A101A201243036
:1001A8000A128A113D210A128A1100300A128A1194
:1001B80017200A128A1179080319E328E428EC2881
:1001C800831203131E08A3002308F800F9019F14E3
:1001D80001300A128A1117200A128A1179080319A4
:1001E800F628F728D928831203131E08A30023082A
:1001F800F700F9019F14D9280A128A110C288312D2
:1002080003138C1D082909292F290A128A115B2139
:100218000A128A11F1007108F60076088312031396
:1002280086007603031D19291A29202978080A123D
:100238008A116B210A128A1102307606031D2529BC
:1002480026292C2977080A128A116B210A128A1189
:10025800831203138C119F18322933293629F90187
:10026800F90A0C1373088A00720E8300FE0E7E0EC4
:100278000900F400831603138712741D44294529C5
:100288004D2983120313220883160313940087153C
:10029800552983120313200822048316031394009C
:1002A80087117408831203132104940008000A12AA
:1002B8008A1164210A128A11831203131308080091
:1002C80083160313141C69296A2964290800F0009D
:0A02D800700883120313930008005E
:04400E00D4E0FFFFFC
:00000001FF
