:020000040000FA
:060000000A128A110C280F
:10000800FE00030EF2000A08F3000A128A11012901
:100018000A128A110F28F601F701F801F901830184
:100028000A128A11B72883120313A0008B170B1723
:10003800831603130C17831203130C139F131F1734
:100048001F1476289F121F129F111F11B0289F128C
:100058001F129F111F15B0289F121F129F151F11E5
:10006800B0289F121F129F151F15B0289F121F1628
:100078009F111F11B0289F121F169F111F15B0281E
:100088009F121F169F151F11B0289F121F169F152C
:100098001F15B0289F161F129F111F11B0289F16F9
:1000A8001F129F111F15B0289F161F129F151F1191
:1000B800B0289F161F129F151F15B0289F161F16D0
:1000C8009F111F11B0289F161F169F111F15B028CA
:1000D8009F161F169F151F11B0289F161F169F15D4
:1000E8001F15B0282008F400F5017508003A031917
:1000F8007E28B0287408003A03192628013A031903
:100108002B28033A03193028013A03193528073AEE
:1001180003193A28013A03193F28033A03194428D6
:10012800013A031949280F3A03194E28013A0319CD
:100138005328033A03195828013A03195D28073A46
:1001480003196228013A03196728033A03196C282E
:10015800013A03197128B028831603139F018312EB
:1001680003139F14080003308316031385008601C8
:100178000330831603178800831203138501860151
:100188008C11831603138C1583120313A001A1018C
:10019800A20124300A128A113A210A128A11003067
:1001A8000A128A1117200A128A1179080319DD2800
:1001B800DE28E828831203131E0886001E08A30001
:1001C8002308F700F9019F1401300A128A11172039
:1001D8000A128A1179080319F228F328D3288312FE
:1001E80003131E0886001E08A3002308F600F90161
:1001F8009F14D3280A128A110C288B130B1383120D
:1002080003139F18082909290C29F901F90A0C1365
:100218008C1D0F29102931290A128A1158210A1216
:100228008A11F1007108F8007808031D1C291D299E
:10023800232977080A128A1168210A128A11780379
:10024800031D272928292E2976080A128A116821D0
:100258000A128A11831203138C118B170B17730858
:100268008A00720E8300FE0E7E0E0900F4008316CB
:1002780003138712741D412942294A298312031343
:100288002208831603139400871552298312031337
:10029800200822048316031394008711740883121C
:1002A80003132104940008000A128A1161210A121A
:1002B8008A11831203131308080083160313141CEE
:1002C8006629672961290800F00070088312031362
:0402D8009300080087
:04400E00D4E0FFFFFC
:00000001FF
