:020000040000FA
:060000000A128A110C280F
:10000800FE00030EF0000A08F1000A128A11E32824
:100018000A128A110F28F50183010A128A11B228DF
:10002800F4008B170B17831603130C178312031393
:100038000C139F131F171F1471289F121F129F1153
:100048001F11AB289F121F129F111F15AB289F125B
:100058001F129F151F11AB289F121F129F151F15E6
:10006800AB289F121F169F111F11AB289F121F1636
:100078009F111F15AB289F121F169F151F11AB2824
:100088009F121F169F151F15AB289F161F129F1131
:100098001F11AB289F161F129F111F15AB289F1603
:1000A8001F129F151F11AB289F161F129F151F1592
:1000B800AB289F161F169F111F11AB289F161F16DE
:1000C8009F111F15AB289F161F169F151F11AB28D0
:1000D8009F161F169F151F15AB287408F200F30111
:1000E8007308003A03197928AB287208003A0319F3
:1000F8002128013A03192628033A03192B28013A23
:1001080003193028073A03193528013A03193A2800
:10011800033A03193F28013A031944280F3A0319EF
:100128004928013A03194E28033A03195328013A7A
:1001380003195828073A03195D28013A0319622858
:10014800033A03196728013A03196C28AB28831668
:1001580003139F01831203139F14080003308316AF
:100168000313850086010330831603178800831262
:1001780003138501860100300A128A1114200A121D
:100188008A1175080319C928CA28CE28F5018312CF
:1001980003139F1401300A128A1114200A128A11BB
:1001A80075080319D828D928BF28831203131E08F5
:1001B8008600F5019F14BF280A128A110C288B1398
:1001C8000B13831203139F18EA28EB28EE28F50176
:1001D800F50A0C138B170B1771088A00700E830031
:0601E800FE0E7E0E090070
:04400E00D4E0FFFFFC
:00000001FF
